:020000040000fa
:080000000002040000000000f2
:020000040000fa
:100008009402000094020000940200009402000090
:100018009402000094020000940200009402000080
:100028008608000094020000940200009402000078
:100038009402000094020000940200009402000060
:100048009402000094020000940200004808000096
:10005800be07000068070000940200009402000038
:100068009402000094020000940200009402000030
:100078009402000094020000940200009402000020
:100088009402000094020000940200009402000010
:10009800940200009402000050080000940200003e
:1000a80094020000940200009402000094020000f0
:1000b80094020000940200009402000094020000e0
:1000c80094020000940200009402000094020000d0
:1000d80094020000940200009402000094020000c0
:1000e80094020000940200009402000094020000b0
:1000f80094020000940200009402000094020000a0
:10010800940200009402000094020000940200008f
:10011800940200009402000094020000940200007f
:10012800940200009402000094020000940200006f
:10013800940200009402000094020000940200005f
:10014800940200009402000094020000940200004f
:10015800940200009402000094020000940200003f
:10016800940200009402000094020000940200002f
:10017800940200009402000094020000940200001f
:10018800940200009402000094020000940200000f
:1001980094020000940200009402000094020000ff
:1001a80094020000940200009402000094020000ef
:1001b80094020000940200009402000094020000df
:1001c80094020000940200009402000094020000cf
:1001d80094020000940200009402000094020000bf
:1001e80094020000940200009402000094020000af
:0801f8009402000094020000d3
:020000040000fa
:10020800940200009402000094020000940200008e
:10021800940200009402000094020000940200007e
:100228008608000094020000940200009402000076
:10023800940200009402000094020000940200005e
:100248009402000094020000940200004808000094
:10025800be07000068070000940200009402000036
:10026800940200009402000094020000940200002e
:10027800940200009402000094020000940200001e
:10028800940200009402000094020000940200000e
:10029800940200009402000050080000940200003c
:1002a80094020000940200009402000094020000ee
:1002b80094020000940200009402000094020000de
:1002c80094020000940200009402000094020000ce
:1002d80094020000940200009402000094020000be
:1002e80094020000940200009402000094020000ae
:1002f800940200009402000094020000940200009e
:10030800940200009402000094020000940200008d
:10031800940200009402000094020000940200007d
:10032800940200009402000094020000940200006d
:10033800940200009402000094020000940200005d
:10034800940200009402000094020000940200004d
:10035800940200009402000094020000940200003d
:10036800940200009402000094020000940200002d
:10037800940200009402000094020000940200001d
:10038800940200009402000094020000940200000d
:1003980094020000940200009402000094020000fd
:1003a80094020000940200009402000094020000ed
:1003b80094020000940200009402000094020000dd
:1003c80094020000940200009402000094020000cd
:1003d80094020000940200009402000094020000bd
:1003e80094020000940200009402000094020000ad
:0803f8009402000094020000d1
:020000040000fa
:100400002f8e20000e7f24000e01880000000000c7
:1004100000012000200288000c000700209b200023
:100420000100200011000700000020000000e00093
:10043000020032000000020000000000f608020086
:10044000000000000040da000000fe004440a90067
:10045000000020000000e000030032000000200047
:10046000a00188004440a800000006009101880017
:10047000800078000000eb0015003700e2804000ab
:1004800032a0b4009101ba00e280400032a0b40072
:100490009102ba00e280400032a0b4000002eb00fa
:1004a000472bde00f507b200602ce10004003a00a3
:1004b0000059eb008301e900fdff3e000400370016
:1004c0006128e100010032000082eb000400070017
:1004d0001101ba000200e000e8ff3a000000060047
:1004e0003159ba008301e9000c0032002159ba00e9
:1004f0008301e900080032000400e00003003a0034
:10050000e280400032a0b400f5ff370011d9ba00f4
:100510008301e900faff3a008100e800e180400031
:1005200032a0b400000006000040da000000fe0027
:1005300003f0a200889fbe008a9fbe008c1f780037
:1005400081000700880033006450e1004f00320052
:100550006420e1005200320003826c0007003b007f
:100560000905d0000306d000820f54000c065d0080
:100570000200390002003200890178000306780089
:100580008582550004003d000003fd008103fd004d
:100590008502ea008b854200840f720002003b0056
:1005a00060001000e08018006011b8000005eb004a
:1005b0007a28e1000a00390006007800c75ddd00f6
:1005c000f707b200878075002d0037008281710027
:1005d0000a017800610560008180d1000080d300ad
:1005e0008502e900f9ff3b000604400087844800cb
:1005f00002003b0060041400e0841c000988a30092
:10060000070032008a8171008281710061016400fb
:100610008904d1000884d3008b05e8001700370057
:100620000978a30013003a000b00e0001300340027
:100630008b05e9000804440089844c000a447400d6
:100640000978a3000d003a000b00e0000700340019
:100650008b05e9000804440089844c0001003a003d
:100660000b0020000978a300f7ff32000001eb0027
:1006700002003700828171000a0178000c00070037
:100680000cf0a70001f0a000400037006420e1005a
:1006900002003a00838f6c00400033000801be0066
:1006a0000200be0039003700f4ff2f003e00370083
:1006b00081002000618055000b003d000b002000f0
:1006c00061fe2f000100e1001d00340082817100f5
:1006d000610164008904d1000884d3000000e800af
:1006e000faff3a007100200061006400030070000e
:1006f000020060000900320061044400e0844c0004
:100700000988a500050032008b05e8006808e100b3
:1007100002003a008904d1000884d300f20f2000bf
:100720000258e10005003d00c75ddd00f907b20099
:100730008980750008007800000006000bf827008b
:100740008b007800000005000004be0031000700a7
:100750000003be000405be000200be002d0007001d
:10076000844f7500000006000200be006450e100e6
:10077000050036006420e100020036000968a3008d
:1007800001003a000800be000160a0004f0678009a
:100790004f05be004f04be0000000600f0ff2f0012
:1007a000f1ff2700f9ff3700889fbe008a9fbe0037
:1007b000841f7800e4ff07004f0078001100330029
:1007c000f0ff2f00838f6c0006003b0004056500de
:1007d0000a00a7000800370009f0a600100020005a
:1007e00008003700820f5400838f5c00030039003b
:1007f0001000200001003e000000200009f0a700ca
:100800000000ea004f05be004f04be000000e000fb
:1008100000000600c70ade00f107b200f50fb200c3
:1008200008003200e1cf4200020032000170a00057
:1008300024000500810f700001003200040805004b
:1008400044000500810f700002003a00140005000a
:100850008502e9000000400081c04800fcff3b0029
:080860000170a0002400050056
:020000040000fa
:100868000000fa00c522a900020007000080fa0073
:10087800000006000000fa000002eb006442880055
:1008880005003700c4090900000000006442800028
:100898000402e800644288006542800024032000c6
:1008a800848f5200f7ff34000080fa000000060031
:1008b8000000fa000002eb006442880004003700e0
:1008c800ecff0700644280000402e80064428800ec
:1008d80065428000840c2000848f5200f8ff3400a9
:1008e8000080fa00000006000000fa0040a7a900f6
:1008f800143a80000480a1000490a00004a0a10084
:10090800143a88004207a8000080fa000000060098
:100918000000fa00041980000002eb0004198800a6
:10092800041980000002eb001419880004198000e3
:100938000002eb0024198800041980000002eb0073
:100948009419880021a3a900041980000480a1003b
:100958000490a10004198800041980000450a00024
:100968000460a0000470a000041988002143a800b6
:100978002063a9001419800004d0a00004e0a0009e
:1009880004f0a000141988002223a900141980007b
:100998000480a1000490a1001419880025e3a80090
:1009a800f4c1b3000440780024e3b700451980007f
:1009b80004fe2f00048262004419880028e3a9007d
:1009c800141980000420a1000430a1000440a100f3
:1009d8000450a10014198800c4f02f00641988007d
:1009e8000002eb0044198800340f200084198800a5
:1009f80021e3a8002003a9002023a80085a0a900be
:100a080095a0a8000080fa00000006000000fa0087
:100a180064042000143a880074052000143a880001
:100a280042c7a90004fc2f0064198800c982a900e4
:100a3800c122a900c002a800c022a800d002a800b4
:100a4800c842a800c862a800d022a800cd82a80089
:100a58003535800004fe2f00048262004401b30093
:100a68003435880095368000f40f2e0084826200a9
:100a780004502000048272009436880025358000d6
:100a880004fe2f00048262007401b300243588003c
:100a9800b536800004fe2f00048262003400b300e3
:100aa800b4368800c522a900d462a800d482a80060
:100ab800d4c2a800d4e2a80064042000143a880034
:100ac80074052000143a880042c7a8000080fa0084
:100ad800000006000000fa003401200044118800dc
:100ae80023a2a90023e2a900141180000460a10038
:100af8000470a1001411880023c2a9008580a900f0
:100b08008560a9009560a80021e2a8002342a800fa
:100b18003002a900841180000410a1000420a10063
:100b28008411880030a2a9003062a9003401200095
:100b3800c411880033a2a90033e2a90094118000ef
:100b48000460a1000470a1009411880087e0a90046
:100b580087c0a90097c0a80031e2a8003342a800c6
:100b68000080fa00000006000000fa00c4ceb300be
:100b78000440780045e8b70014c0b300044078008a
:100b880046e8b70094c9b3000440780047e8b700c6
:100b980094c9b3000440780048e8b7004400200036
:100ba800044288000080fa00000006000000fa00f5
:100bb8000002eb00644288001a003700644280009b
:100bc800e20f52000e003a0010c0b3007800070090
:100bd80054458000040078004e00070064458000fa
:100be800040078004b00070074458000040078007a
:100bf800480007008445800004007800450007008d
:100c08006542800054842000048242001442780027
:100c18000440780066000700644280000402e8008f
:100c2800644288006542800004428000848f52003c
:100c3800e2ff35000080fa00000006000000fa001c
:100c48000002eb00644288002c00370064428000f8
:100c5800e20f52001c003a0030c0b30054000700f5
:100c6800c409090000000000544580000400780011
:100c7800280007006445800004007800250007006c
:100c88007445800004007800220007008445800035
:100c9800040078001f0007009445800004007800d5
:100ca8001c000700a4458000040078001900070014
:100cb800b44580000400780016000700c445800091
:100cc8000400780013000700c409090000000000b0
:100cd8006542800054842000048242001442780057
:100ce8000440780032000700c40909000000000031
:100cf800644280000402e800644288006542800083
:100d080004428000848f5200d0ff35000080fa0032
:100d1800000006000400fa00100798001e02900068
:100d2800044f78001e0290004822de001447980005
:100d38001e4090001e0007001e4078001c0007009f
:100d48000080fa00000006000200fa00000f780098
:100d5800000000000100370000000000350480009a
:100d68000400280004826200e00f5200fbff3200fa
:100d780087e0a9001e027800144278000482fb0074
:100d8800a41188001e027800144278000482fb0037
:100d98000402ea004f22de00044278001e0fe80039
:100da800e04f5200ecff3a000080fa000000060015
:100db8000200fa00004f7800000000009511800042
:100dc8000420200004826200e00f5200fbff3a007a
:100dd8009e4278000582fb00a41188000080fa007a
:100de800000006000400fa00100798001e02900098
:100df800044f78001e0290004822de001447980035
:100e08001e40900008000700c40909000000000007
:100e18001e40780004000700c40909000000000013
:100e28000080fa00000006000200fa00004f780077
:100e380000000000250480000400210004826200f4
:100e4800e00f5200fbff32009e4278000582fb0053
:100e5800241188000080fa00000006000000fa0053
:100e680025168000042020000482620004f0a700f8
:100e78000402ea000402e9004f22de00044278007e
:100e88000482fb00610262004922dd002616800010
:100e9800f5df2f00850263000482720024168800a3
:100ea8000080fa00000006000000fa0081e0a800b7
:100eb8008580a90087e0a9008560a90087c0a900ee
:100ec8000080fa0000000600849fbe00861f78009c
:100ed8000000fa00a4468000e00f520009003a0022
:100ee800f443800005188000040342006485200054
:100ef80004024300050a7800f44380000402e80075
:100f0800f4438800f4438000e50f520004003400e5
:100f180014002000a44688000002eb00f443880077
:100f2800f443800084024200648d20000482420061
:100f380014027800044278007f4262000482fb00b9
:100f48007f0262004619800005fe2f0085026300bb
:100f580004827200441988002003a9002023a800f5
:100f680085a0a9000080fa004f0378004f02be0058
:100f7800004006000000fa008580a9000080fa0001
:100f8800004006000200fa00004f780004802000ac
:100f9800144278000404a200e04f52000700320017
:100fa8001e427800f44f420034003a0014c0b300e7
:100fb8000440780000e8b7003100370014802000b2
:100fc800144278000404a200e04f52000b003200e3
:100fd8001e427800e14f520004003a0014c0b300ea
:100fe8000440780001e8b700250037000042eb0014
:100ff8000440780000e8b7002100370094c9b30026
:101008009e42780084cf520011003a0024802000cc
:1010180014427800e04f52000d00320014c0b300b3
:101028000440780003e8b7000042eb000440780071
:1010380000e8b7000042eb000440780002e8b7007f
:101048000042eb000440780001e8b7000c003700cc
:1010580094c9b3009e42780084cf520004003a003d
:1010680014c0b3000440780002e8b7000400370059
:101078001e40780004e8b7000100370000000000b7
:101088000080fa00000006000000fa008560a90050
:101098000080fa00004006003600f800809fbe007d
:1010a800829fbe00849fbe00869fbe003400f80069
:1010b80000002000a00188000000fa0004003700aa
:1010c800b41180000442780004407800adff0700a6
:1010d8009411800061026200e00f5200f8ff3a00ac
:1010e80087c0a9000080fa003400f9004f03be0051
:1010f8004f02be004f01be004f00be003600f9008f
:10110800004006003400f800881f7800080020001e
:10111800a80188004f0478000000fa008400a900a4
:101128000080fa003400f900004006000000fa00d0
:10113800a4468000e10f520022003a000002eb00b2
:10114800644288000f003700c4090900000000004d
:101158006442800065428000058342006585200066
:1011680085024300950278000403420004882000a9
:1011780004024300050a7800644280000402e80083
:101188006442880064428000e50f5200eeff34009c
:101198000002eb00a44688001444800054458800ef
:1011a80024448000644588003444800074458800e5
:1011b80044448000844588000002eb0044458800d0
:1011c80006003700a4468000e10f520003003a00f1
:1011d800444580000402e800444588000080fa0085
:1011e800000006000400fa00000f780011079800bc
:1011f80006fe0700bcfd07002bff07005afe07008c
:1012080034fe0700c2fd070095fd070099fd0700a1
:10121800c6ff07000200070021000700fcff370097
:101228000000fa003480200014427800e04f520099
:101238001900320095a0a80008ff07008dfd0700df
:1012480044802000144278000482fb00e10f520021
:1012580003003200e30f520003003200040037009d
:1012680052fe07000200370074fe0700000000006d
:1012780080fd07007ffd07007efd07000042eb00b0
:101288000440780004e8b7000042eb00044078000e
:1012980003e8b700f1fe07000080fa00000006002e
:1012a8000000fa00881f78004446800055468000f8
:1012b80018c0b30002002000832424000400be00ec
:1012c800f7fc070000027800e00f520001003c0024
:1012d8000044eb00e04f5400140032006516800013
:1012e800040021000482620004f0a7000402ea005e
:1012f8000402e9004f22de00044278000482fb0069
:10130800610262004c22dd0066168000f5ff2e00a7
:101318008502630004827200641688006022b800a7
:101328004446880055468800090037004446800036
:10133800554680000200200003f823000400be0088
:101348007afc07000002be00444688005546880023
:0c1358004f0478000080fa00000006003e
:020000040000fa
:10136400aa0800003800000002000000010002008a
:101374000003000004000500000600000700080048
:101384000000000000006300006300000100000092
:101394000000000000000000000100000000000048
:1013a400000000000000000000010000040005002f
:1013b400000600000700000000080000aa0000006a
:0813c400000000000000000021
:020000040000fa
:0200000401f009
:04000000cf0000002d
:020000040000fa
:0200000401f009
:04000400cf00000029
:020000040000fa
:0200000401f009
:0400080007000000ed
:020000040000fa
:0200000401f009
:04000c00820000006e
:020000040000fa
:0200000401f009
:04001000820000006a
:020000040000fa
:0200000401f009
:040014005f00000089
:020000040000fa
:0200000401f009
:04001800f7000000ed
:020000040000fa
:0200000401f009
:04001c00dfff000002
:00000001FF
